:0400000044EF04F0D5
:1008000000414953534D5300494F49540000000ED5
:10081000936E94909492380E6BEC04F0060E6BEC91
:1008200004F00C0E6BEC04F0010E6BEC04F0800E87
:100830006BEC04F00AD001C0F6FF02C0F7FF08001D
:10084000F55075EC04F0014A022A01C0F6FF02C01F
:10085000F7FF0800F5500009D8B40BD0ECD703C05F
:10086000F6FF04C0F7FF0800F55075EC04F0034AEA
:10087000042A03C0F6FF04C0F7FF0800F550000982
:10088000D8A4EDD700EF00F0FE0EF66E080EF76E5E
:10089000000EF86E00EE01F010EE04F00900F5CF46
:1008A000EEFFE550E150FAE1000EF86E080EF76E2B
:1008B000000107EF04F0000E066E000E056E0650F4
:1008C000800A590F100ED8B4055CD8B003D0054A81
:1008D000062AF5D71200E8CF07F08B9007C081FFFA
:1008E0008B825BEC04F08B921200E8CF07F08B80D8
:1008F00007C081FF8B825BEC04F08B921200010831
:020900000808E5
:020000040020DA
:08000000FFFFFFFFFFFFFFFF00
:020000040030CA
:0E00000000051F1FFF8385FF0FC00FE00F409C
:00000001FF
