:04000000BAEF3FF024
:107F600001000200030004000500060007000800ED
:107F700009000A00600EF66E7F0EF76E000EF86EB6
:107F800000EE1DF010EE14F00900F5CFEEFFE55005
:107F9000E150FAE10001CDEF3FF020EE1DF010EED0
:107FA00005F0140EDECFE6FFE82EFCD7000E1C6EA7
:107FB000000E1B6E1C50800A800F0A0ED8B41B5C8A
:107FC000D8B018D0D8901B34016E1C34026E050E48
:107FD0000124D96E000E0220DA6EDECF03F0DDCF71
:107FE00004F019500324196E1A5004201A6E1B4A0B
:107FF0001C2AE0D7000E946E19C082FF00EF00F03B
:020000040020DA
:08000000FFFFFFFFFFFFFFFF00
:020000040030CA
:0E00000000051F1FFF8385FF0FC00FE00F409C
:00000001FF
